:020000041000EA
:10000000002008205D0100101B0100101D010010E0
:100010001101001011010010110100101101001058
:100020001901001019010010190100101F01001022
:10003000110100101901001021010010230100100E
:100040001101001011010010110100101101001028
:100050001101001011010010110100101101001018
:100060001101001011010010110100101101001008
:1000700011010010110100101101001011010010F8
:1000800011010010110100101101001011010010E8
:1000900011010010110100101101001011010010D8
:1000A00011010010110100101101001011010010C8
:1000B00011010010110100101101001011010010B8
:1000C00011010010110100101101001011010010A8
:1000D0001101001011010010110100101101001098
:1000E0001101001011010010110100101101001088
:1000F0001101001011010010110100101101001078
:100100001101001011010010110100101101001067
:10011000EFF30580103800BE00BE00BE00BE00BE7A
:1001200000BE00BEF2EB8871A01B0010C81B0010BF
:10013000A001001090A31AE7D3DEFFFF42012110B7
:10014000FF0100002C1C0000793512AB4FF00000BD
:100150001E49086006C881F3088810474FF05040D8
:10016000006810B14FF00000F2E70DA40ECC00299A
:1001700002D000F012F8F9E71549164A002000E015
:1001800001C19142FCD11449884714498847144958
:10019000884700BEFDE701C901C29A42FBD3704700
:1001A000C81B001010010020AC020020641D0010CC
:1001B0000000082000000820641D00100010082026
:1001C00000100820000000007047000008ED00E06B
:1001D000AC020020D8040020F913001035020010F2
:1001E000F1130010F8B500BF064B0749C91A891072
:1001F00048BF0131491003D0044B0BB101481847E7
:10020000704700BFAC020020AC02002000000000DC
:1002100008B5054B1BB105490548AFF30080BDE8A3
:100220000840FFF7E1BF00BF00000000900400207D
:10023000641A001008B500F007F8024801F01EFA31
:10024000002008BD641A001001F012BB4FF4807C3E
:100250000C4B00B553F8202003EB8003C00082F064
:10026000400200F1804003F5805E02F0C00200F51C
:10027000203003F54053CEF800204160C3F800C0A1
:1002800000BD00BF048003400FB400B5084883B030
:1002900001F0F4F9049B3BB105A91846019101F066
:1002A0008DF8044801F0EAF9012001F09FF800BF41
:1002B000741A0010841A001070B51646EFF31084FB
:1002C00072B6DFF848E0DEE8CF2F0123002AFAD12A
:1002D000CEE8423F002AF6D1BFF35F8F012301F041
:1002E000070CCA0803FA0CF310F802C01CEA030555
:1002F00008D14CEA030C00F802C0CEE88F5F84F30B
:10030000108870BD3046FFF7BFFF00BF3B040020E0
:10031000044A1078431CDBB2182B28BF102313703B
:10032000704700BF280200204FF0E022936843F09E
:1003300000539360704700BF0021044B03F120027B
:10034000C3E88F1F01339342FAD170473004002075
:100350004FF0E0234FF08032C3F80024C3F80424A8
:10036000C3F80824C3F80C24C3F81024C3F81424D9
:10037000C3F81824C3F81C24C3F82024C3F8242489
:10038000C3F82824C3F82C24C3F8302462B670477D
:10039000012300F01F029340400941B1800000F1A9
:1003A000604000F56140C0F8803103607047024A48
:1003B000203042F82030704700E100E010B582B0F4
:1003C000EFF3108472B6164BD3E8CFCF0122BCF105
:1003D000000FF9D1C3E84C2FBCF1000FF4D1BFF3EB
:1003E0005F8F104A10309268DFF83CC052F820202E
:1003F000624508D0914206D0CDE9000100F0C8FE68
:100400000199074B0098074A926842F82010BFF301
:100410005F8F0022C3E88F2F84F3108802B010BDD5
:100420003904002000ED00E0110100102DE9F04F2B
:10043000034685B0EFF3108772B6764CD4E8CF0F41
:1004400001220028FAD1C4E8402F0028F6D1BFF3DA
:100450005F8F714A03F110069268DFF8D48152F879
:10046000260040454BD0884257D06C4DA0EB050C80
:10047000BCF12F0F43D84FF0010E4FEA531C4FEA47
:100480008C0C0CF1604202F56142D2F800C003F01E
:100490001F030EFA03F300920193C2F8803003EABF
:1004A0000C09BFF35F8FEFF30583DBB29A46002B95
:1004B00035D09E4205D0CDE9020100F069FEDDE9AC
:1004C000020120F0010EDEF808C0614505D18CE084
:1004D000D3F808C0614532D09E469EF9062002EB53
:1004E0004203002A05EB8303F2DA614560D0DDE9BF
:1004F0000032B9F1000F1FD0C3F880211A60464BBB
:100500009B6843F82600BFF35F8F0023C4E88F3F4A
:1005100087F3108805B0BDE8F08F4046EFE720F084
:10052000010EDEF808C06145D7D19EF906B09B45A3
:10053000734609DA404646E0C3F88020DFE793F9C6
:1005400006B0BBF1000F34DB0BEB4B0C05EB8C0260
:1005500092F807E04FEA8C010291916883F807E076
:1005600092F906C09960BCF1000F83F806C04FEA0B
:100570004B0E38DB6FF0070C9288029942F30A02A7
:1005800001EB420208322A44ACEB030C6244C2F392
:100590004A026FEAC2426FEAD2429A80204BDE449E
:1005A0001A7805EB8E0E83F800B08EF806209EE7D1
:1005B0007346BAF1000F1ED1FF228EF806204BF6CB
:1005C0000152AEF80420DFF858C04AF6AA229CF87F
:1005D00000E01946491B49414A43120D83F806E0E1
:1005E0008CF8002083E70F4AD7E79EF906B07346E0
:1005F000BBF1000FA8DA0C4A0C4DD21A083AC2F32C
:100600000A316FEA01516FEA115145EA5202DA806C
:1006100099806CE73904002000ED00E02C020020F6
:10062000D404002001BDFFFF6602002000F8FFFF98
:10063000110100102DE9F041EFF30583DBB29E4676
:10064000EFF3108572B62949D1E8CF2F0123002A94
:10065000FAD1C1E8423F002AF6D1BFF35F8FDFF83D
:100660009C8040F00106D8F808704AF6AA2357F893
:100670002E7004461E4AA41A644163431B0DB74200
:100680005BB21ED092F906409C4220D092F91240F3
:100690009C4227D092F91E409C4225D092F92A40D4
:1006A0009C4208BF032413D0124A002492F800C0D1
:1006B000137080F806C0C1E88F4F85F31088BDE83D
:1006C000F081D8F808200C4C42F82E40ECE70024CA
:1006D00004EB440402EB8402FF2494714BF60154B2
:1006E0009480E1E70124F3E70224F1E739040020D4
:1006F0002C020020D40400201101001000ED00E0C5
:10070000014B0B44036070473004002070B5104C5F
:10071000104DAC420ED2FF26236863B1FFF7F8FDFF
:1007200001462046FFF7ECFFA680BFF35F8F083439
:10073000AC42F1D370BDFFF7EBFD01462046FFF759
:10074000DFFF2671BFF35F8F0834AC42E4D370BD86
:10075000A4020020AC0200200D4B1A68EFF31081B8
:1007600072B6D2E8CFCF0120BCF1000FF9D1C2E8B8
:100770004C0FBCF1000FF4D1BFF35F8F00221B6858
:10078000C3E88F2F81F3108840BF002000217047FD
:10079000C8040020000000002DE9F04F2DED028B71
:1007A00085B0EFF30583DBB2103B9A0818BF012236
:1007B0004FF0010103F0030B18BFA94CA94B08BF70
:1007C000A94C0BEB820253F8225001FA0BF204F50C
:1007D00041539FEDA18B02925A602FE0AB88190420
:1007E00040F19480AB79002B40F0DE80B5F90860D1
:1007F000002EC0F21C816B6906EB460603EBC603B4
:10080000D3E90267B7F1FF3F08BFB6F1FF3F0ED053
:1008100004EB8B01A36A0A69D21AF31A934205D337
:100820000123226A03FA0BF3134200D10E61204622
:1008300000F0E0FAB042B941C0F2F980B5F90860C1
:10084000029B002EE363C9DBD5F8149006EB460A41
:1008500009EBCA07BB682046D7F80C80019300F06B
:10086000C9FA019B984271EB0801B7DBB8F1000FA0
:10087000C0F2C080D7E904317C4A934200F0F8808E
:100880007A88B5F9080092B242EA004098470246D9
:100890000B4652EA030100F0AD80002B80F2CD80C0
:1008A0000199B1EB020E68EB030839F93A30C7E958
:1008B00002E8002B92DB686903EB430200EBC20203
:1008C000D2E90271BE4578EB010C4FEA430285DBA9
:1008D000AC462CF8083F06E003EB430100EBC101F6
:1008E0005A00D1E90271BE4578EB01011A4405DBDB
:1008F00030F9323000EBC20C002BEDDA29F83A3037
:10090000ACF80060AB8819043FF56CAF2B69EFF3CE
:10091000108272B6D3E8CF0F01210028FAD1C3E8C4
:10092000401F0028F6D1BFF35F8F4FF6FF76A888EF
:100930000023296900B2AE80C1E88F3F82F310889E
:100940009842FFF64FAF0746A1466E6905F10808C9
:10095000B5F9083007EB470E002BC44606EBCE0274
:1009600015DBD2E90240AA46019704E036F935309A
:100970009446002B09DB03EB430506EBC502D2E9E5
:100980000271BC4270EB0101F0DA5546019FACF8F0
:10099000007036F93E7026F83E30002FD8DAAB7979
:1009A0004C46002B3FF422AF0023AB71B5F9086031
:1009B000721C33463BD0686905F1080E03E08E4691
:1009C0005A1C3FF415AF03EB430200EBC2014F8802
:1009D0009C463F0430F93230F1D5664581ED028BFB
:1009E000EED0AEF800302989664620F83210A5F81E
:1009F00008C0E5E739F83A302B812B69EFF3108214
:100A000072B6D3E8CF0F01210028FAD1C3E8401F06
:100A10000028F6D1BFF35F8F6B88296929F83A3037
:100A200000236E80C1E88F3F82F31088D6E640BF76
:100A300005B0BDEC028BBDE8F08F20460393019218
:100A400000F0D8F9019A039B10EB020E43EB01086A
:100A50002BE700BFAFF30080FFFFFFFFFFFFFFFFAB
:100A600000800B40A804002000000B4099070010F4
:100A700008460B69039198470028BBD00399D1E938
:100A8000002306E738B5384B1C692CB1BDE8384067
:100A90000A213648FFF734BE0321354800F098F9A3
:100AA000334D314BDD60FFF733FC324A4FF0504E8F
:100AB000024403202C4B4FF00F0C18701A61DEF823
:100AC00000204FF6FF715A705A69A3F802C01483D0
:100AD0004FF00204A2F848404FF00404A2F8784016
:100AE0004FF00504A2F890404FF00604A2F8A84089
:100AF0004FF00704A2F8C0404FF00904A2F8F040FC
:100B00004FF00A04A2F808414FF00B04A2F820416C
:100B10004FF00C04A2F838414FF0010414864FF056
:100B20000804A2F8D840144C4FF00D0E4FF00E0CF4
:100B30009C6008249980A2F850E1A2F868C1A2F84C
:100B4000600011800D4A2C620D49D360FFF736FC1E
:100B500001210320FFF71CFC0A4B0A211C640348F7
:100B6000BDE83840FFF7CCBD74020020C804002067
:100B700000000B4030040020FFFF1000A8040020FC
:100B80009907001000200B40F0B516461F46026979
:100B90000346EFF3108072B6D2E8CF4F0121002C4C
:100BA000FAD1C2E8441F002CF6D1BFF35F8FB3F92E
:100BB00002101D69002945DBD3F814E001EB410266
:100BC0003EF832400EEBC20C5C800024C5E88F4F2B
:100BD00080F3108805983546CCF8100006983E46FC
:100BE000CCF81400BCF80200CCE902560130C0F386
:100BF0000E00012838BF0120ACF8020040EA014095
:100C0000D3F810C0EFF3108572B6DCE8CF7F012671
:100C1000002FFAD1CCE8476F002FF6D1BFF35F8FDA
:100C2000B3F804C02EF832C099801A69C2E88F4F19
:100C300085F3108801211C78DA68A14002F5015380
:100C40005960F0BD0023C5E88F3F80F310884FF056
:100C5000FF30F0BD03464089B0EB214F3ADD5869C3
:100C60000A1402EB420210B5D3F810C000EBC20028
:100C7000EFF3108E72B6DCE8CF4F0122002CFAD1D0
:100C8000CCE8442F002CF6D1BFF35F8F428889B2A5
:100C900092B28A4207D000221B69C3E88F2F8EF3DD
:100CA0001088002010BD6FEA42426FEA5242428033
:100CB0000121002218699971C0E88F2F8EF31088E6
:100CC00093F800C0DA68084602F5015301FA0CF106
:100CD000596010BD00207047EFF30582D2B282B197
:100CE000384B5A6A8A4202D200221046704714BF1B
:100CF000012200229B6A834228BF42F00102104673
:100D0000704770B584B003922F4A0646D3681578B1
:100D100018460C46029300F06DF8029B05F1040C96
:100D200053F82CC0039AACEB000C301A64EB0101B1
:100D3000604571F100010FDB20BF224B596AA142CF
:100D400007D314BF012200229B6AB34228BF42F09E
:100D50000102104604B070BD029200F053F88642C2
:100D600064EB01010029029A1BDB18492346CDE9F7
:100D7000001215483246FFF707FF011E11DD114B27
:100D80005A6AA2421CD39B6AB34217D30E48FFF79C
:100D900061FF0C4B5A6AA242D3D20022104604B023
:100DA00070BD084B5A6AA242F7D3121B18BF01222A
:100DB0009B6AB34228BF42F00102CAE7A242E5D1D2
:100DC00020BFE3E700000B40740200205907001029
:100DD00010B4054B054C064AA04214BF1846581CD7
:100DE00010BCFFF769BA00BF5804002000800B4018
:100DF000881A00100346416A0A46986A596A8A426C
:100E0000FAD17047034B596A0A46986A596A914267
:100E1000FAD1704700000B4000B58E46154A536A60
:100E20009C46916A536A6345FAD1401853EB0E030E
:100E30004FF0000228BF0122BAB10E4B5A6A531C70
:100E400008BF104608D04FF0FF33184609494A6AD8
:100E50009A42FCD39A4207D1064B02E0596A91426A
:100E600002D1996A8142F9D300BD024A526A934283
:100E7000ECD8EFE700000B4070B5044682B00620C6
:100E80000E4600F0EFF8002844D0384A3848944223
:100E900014BF4FF080624FF00062364B364902605B
:100EA0001A608D6832EA0505FBD1304A4FF4807034
:100EB000A21AB2FA82F23149520921F81200062030
:100EC00000F0D0F8C200B2FBF6F20132D10923D112
:100ED000402601236362A162256BEB0725D42346DC
:100EE000002153F82C2F062003F580521160256352
:100EF000019200F0B7F840F2013503218000B0FB09
:100F0000F6F0E36A019A83F0700303F07E03136046
:100F10002563A16402B070BD4FF6FE7081421DD9F9
:100F200029464FF6FF73164ED4E740F2013204F51E
:100F300040531A63636AA26A062002EB831201928D
:100F400000F090F80F4B019AA3FB00139002DB0A0C
:100F5000B0FBF3F00021FFF75FFFC0E7C2F34502EB
:100F60000B4602EB81161146B4E700BF0080074034
:100F7000002002400030024000000240CC0400206B
:100F8000C0FF3F00757B2B8F00EB400C4FEA8C0CB1
:100F90000CF1804C0CF5803C70B51E46DCF804303A
:100FA000041FB3F5803F38BF4FF48033E4B238BF3D
:100FB000CCF80430012C2ED94FF40065284B0CF5E9
:100FC000405ECEF8005053F820E0BEF1000F17D17C
:100FD000DCF800E0012C8EEA421202F0E0020CF58F
:100FE000805ECEF800202BD94FF4006143F82060DA
:100FF0004FF480330CF500521160CCF8043070BD12
:101000005D69B5FBFEFE0EF1010E0EEB4E0EBEF15C
:10101000030EFCD2DCE70129CED103240CF54053AA
:101020001C60DCF80830DB07FBD5DCF800300CF581
:10103000805E83EA421303F0E003CEF80030084BF1
:101040000122DCF800404C4004F00304CEF80040DC
:1010500002FA01F1DCF808200A42FBD0C4E700BF25
:101060005C040020014B53F8200070475C04002012
:1010700010B5029C8E464FEA043C4CEA034C1C4BD4
:10108000B3FBF1F30168B2FBF3F4002920DB194A4A
:10109000194B904214BF4FF480424FF4004217495D
:1010A0001A6003F580531A608B6832EA0303FBD1A0
:1010B000212200F540530433C0F800E084601A6038
:1010C0000268002AFCDA0822C0F80CC01A6010BDC1
:1010D000036803F03F037345D9D18368C3F30B035F
:1010E000A342D4D1C36803F4EE236345CFD110BD2E
:1010F000001BB700008005400020024000000240B5
:10110000012300EB4000800000F1804000F58410D6
:1011100041600360704700BF0023DB8A002242E881
:1011200000F2520201D4102118470421184700BFD1
:10113000034AD2F82838002BFBD0BFF35F8F7047EB
:1011400000000E400021044B044ABFF35F8F43F8B8
:10115000041B9342F9D170470C080E402C080E4036
:101160004FF42A6C4FF48D70054A064B0649C2F8BD
:1011700000C0D06019605368002BFCDA704700BFD4
:101180000080044000A0044000B0FA00704700BF97
:1011900008B50148FFF778F8AC1A001038B5054CCF
:1011A000054DAC4204D254F8043B9847AC42FAD304
:1011B00038BD00BF201A0010601A00100648DFF882
:1011C00028C0064B064A0749C0F800C01A608B6861
:1011D00032EA0303FBD17047002002400030024096
:1011E000F6FFF303000002407F3BEFEF044BDB6CA4
:1011F000B3F5004F03D14FF48022024BDA647047FD
:1012000000001150002011504FF0E022044BD2F8A2
:10121000881D0B43C2F8883D10EE3004704700BFB4
:10122000030330006FF06041044B054A1960936876
:10123000DB4333F06043FAD1704700BF0030024017
:101240000000024010B545F25320FFF765FFBDE8EE
:10125000104003460420184710B545F25320FFF70D
:101260005BFFBDE81040034601201847FFF764B854
:101270001449154B70B55C1AA610442E324628BF8F
:101280004422124D9200284600F01CFBB4F5867FE4
:1012900013D80F4A14D0C6F144002B19410803EBB0
:1012A000C101C3E9002208339942FAD1C30704D52A
:1012B00020F00100304445F82020064B9D6070BDB1
:1012C0004320F8E70000001010010010000000208B
:1012D0001101001000ED00E0002370B52B4C82B02E
:1012E000C4F88430FFF73CFF0122294BDA63636CBA
:1012F000012BFCD10321264A244B11639C6B012C4A
:10130000FCD10226052521460523224A22480096C3
:10131000FFF7AEFE21462B46204A21480095FFF7F5
:10132000A7FE0022042031461E4BFFF72DFE21466A
:10133000284600221C4BFFF727FE002208201146FA
:101340001A4BFFF721FE002209201146174BFFF729
:101350001BFE002206201146134BFFF715FE00224C
:10136000114B07201146FFF70FFE0420FFF77AFE0E
:1013700000240F4BA3FB0035AD0CE0B2294601342D
:10138000FFF7BEFE062CF8D102B070BD0000014090
:1013900000300140002F685900000540008C86474E
:1013A00000800540001BB70080D1F008006CDC0213
:1013B00083DE1B4300B9704700F01EB910B5094A1F
:1013C00084B014684CB1034600914FF0FF3203A97A
:1013D0000548A047012004B010BD00F04FF9204699
:1013E00004B010BD8C040020B513001000BEFDE752
:1013F00008B5FFF7FBFF00BF38B5064C064DFFF7F9
:10140000CDFEAC4204D254F8043B9847AC42FAD328
:1014100038BD00BF601A0010641A00100368084647
:101420001146184770B505460846697D82B0002907
:101430004FD0002A25DD037814460A2B064622D019
:10144000012C4FF0000E0DD03246012312F801CFCF
:101450001946BCF10A0F03F1010320D09C42F5D1DB
:10146000744505DD2B68A4EB0E0106EB0E009847D2
:10147000311911F8013CA3F10D03B3FA83F35B09B1
:101480002B7502B070BD2B7D002BD9D102212B68AA
:1014900013489847012CEBD04FF0010ED4E712F817
:1014A000010C0D28DAD08E4506EB0E00A1EB0E01E3
:1014B00005DACDE900322B689847DDE90032CDE945
:1014C000003202212B6806489847009B019A9E46ED
:1014D000C4E711462B6802B0BDE87040184700BF52
:1014E000781B00102DE9F04782B090461C460D464F
:1014F0000746FFF787FC4FF0FF3C6FF000462E4A8F
:10150000821841F10003944576EB03013CBF62462B
:1015100033462A4800F080FA6B1C824640D00CB358
:10152000274E284B1C68B4B1B8F1000F1CD1DFF86E
:101530009C8001E0246974B12368002BFAD0D8F8AC
:1015400000300BB19C42F5D120462A463946B047BF
:101550002469002CF0D1BAF1000F26D1284602B040
:10156000BDE8F087184EDCE74FF00A09DFF85C8031
:1015700002E02469002CEED02368002BF9D0D8F8C3
:1015800000300BB1A342F4D12A4639462046B04779
:10159000012220460DF107018DF80790B047E8E7DA
:1015A000384600F005FA0546B9E7044800F030FA7D
:1015B000284602B0BDE8F08740420F00A402002098
:1015C00025140010840400201D140010880400203D
:1015D000084A136823B90AE003F110021B6933B10A
:1015E0008342F9D129B9186910601961704701B1B6
:1015F0001060704784040020F0B583B006468DF873
:101600000700FFF7FFFB4FF0FF356FF00044174A6C
:10161000821841F10003954274EB03013CBF23465D
:101620002A46134800F0F8F9124B07461C689CB193
:10163000114D01E024697CB12368002BFAD02B689E
:101640000BB19C42F6D1204601220DF10701FFF7B4
:10165000E9FE2469002CEFD117B9304603B0F0BD84
:10166000034800F0D5F9304603B0F0BD40420F000A
:10167000A4020020840400208804002038B5044619
:1016800000F096F9012305461A4620462946FFF741
:1016900029FF084B1C682CB163682BB1984724695B
:1016A000002CF9D1284638BD2469002CF4D12846F5
:1016B00038BD00BF84040020B1F1000C1EDD104ACB
:1016C000104B126810B5D31AB3FA83F30D24DFF868
:1016D00038E05B09411E3EF913E08C4411F8010F1C
:1016E000864506D093699B06FCD461451060F5D110
:1016F00010BD93699B06FCD41460F3E7704700BFEC
:10170000D004002000800740CC040020244BB1F11D
:10171000000C00B5D3F800E02FDD0021214B01388B
:101720001A689369DB0618D401319369DB06FCD48F
:1017300013688C4500F8013FF3D1BEF1000F09D0CA
:1017400050211346916353F8342F02F0380203F509
:1017500080531A606146084600BDBEF1000F09D0F3
:1017600050201346906353F8342F02F0380203F5EB
:1017700080531A6081B1084600BDBEF1000F0BD046
:10178000084B50211A681346916353F8342F02F026
:10179000380203F580531A606FF00201DBE700BFE7
:1017A00050040020D0040020054B1B6833B10021F9
:1017B000044A05481268006891631847704700BFE3
:1017C00050040020D004002054040020024B1A686A
:1017D00093691B07FCD47047D004002030B51F4D1F
:1017E0001F4AD5F800C01F4C8E46944514BF2122D5
:1017F0002222216883B010B1A9B103B030BD002905
:10180000FBD0CCF838000146019010460092FEF75C
:10181000BFFD15490098FEF709FE019B134A23609E
:10182000136003B030BD114B20600F491046009289
:10183000C3F800E0FEF7C2FD01210098FEF7A8FD05
:101840002A6850211346916353F8342F02F038026E
:1018500003F580531A6003B030BD00BFD0040020F0
:101860000080074050040020A917001054040020F5
:1018700010B50E490E4C0F480F4A104B00782160EE
:101880000020022112781B78FEF7E0FC02210120E3
:10189000FEF7DCFC4FF4E1312068FFF7EDFABDE81C
:1018A000104001210648FFF793BE00BF000007402B
:1018B000D0040020C41B0010C01B0010BC1B001073
:1018C0008C020020844641EA000313F0030349D14F
:1018D000403A23D30B6803604B6843608B68836096
:1018E000CB68C3600B6903614B6943618B6983619A
:1018F000CB69C3610B6A03624B6A43628B6A836282
:10190000CB6AC3620B6B03634B6B43638B6B836369
:10191000CB6BC36340304031403ADBD230320BD323
:101920000B6803604B6843608B688360CB68C3605F
:1019300010301031103AF3D20C3205D351F8043B79
:1019400040F8043B043AF9D2043208D0D2071CBF55
:1019500011F8013B00F8013B01D30B88038060467E
:10196000704700BF082A13D38B07B1D010F00303D0
:10197000AED0C3F10403D21ADB071CBF11F8013B40
:1019800000F8013BA4D331F8023B20F8023B9FE76B
:10199000043AD9D3013A11F8013B00F8013BF9D2DE
:1019A0000B7803704B7843708B7883706046704778
:1019B00020F0030110F00300C0F1000051F8043BD7
:1019C00000F1040C4FEACC0C6FF000021CBF22FAAD
:1019D0000CF213434FF0010C4CEA0C2C4CEA0C4C6B
:1019E000A3EB0C0222EA030212EACC1204BF51F864
:1019F000043B0430F4D0C2F1000102EA0102B2FA61
:101A000082F2C2F11F0200EBD2007047F8B500BFAE
:101A10005FF800F0E50100205FF800F07D01002094
:101A200045120010BD110010ED110010D912001068
:101A300025120010451100106D1200103111001018
:101A40000D07001071120010850A00108D11001092
:101A50005912001009120010290300105103001040
:041A6000110200105F
:101A640048656C6C6F2C20776F726C6421000000E9
:101A74000A2A2A2A2050414E4943202A2A2A0A00A7
:101A84000A000000486172647761726520616C61CC
:101A9400726D20256420616C726561647920636CC9
:101AA40061696D656400000048617264206173734C
:101AB4006572740052656C6561736500626F6F7462
:101AC400325F77323571303830000000322E322EDA
:101AD400300000007069636F3200000068656C6C50
:101AE4006F5F776F726C64004A616E202031203121
:101AF400393830005541525420737464696E0000C3
:101B040055415254207374646F7574005541525496
:101B140020737464696E202F207374646F7574006D
:101B240006005250D3F07542B81A00100600525005
:101B3400E182887FC01A001006005250ABB3605394
:101B4400D01A001006005250BBFF3CB6D81A001041
:101B540006005250861C0302E01A00100600525080
:101B64005422A29DEC1A001005005250DE65F46860
:101B7400781D00100D0A00000600525053B4F4A161
:101B8400101B0010080052501200000008005250B0
:041B940092100000AB
:081B98002CFDFF7F010000009D
:101BA000241B0010301B00103C1B0010481B0010B1
:101BB000541B0010601B00106C1B0010901B0010C9
:081BC000881B00107C1B0010C3
:101BC8004FF050412DE9F0411F460B680446164678
:101BD8000025984608E0C3E88F5F82F310883046F6
:101BE800394600F075F8E8B92368EFF3108272B649
:101BF800D3E8CF0F01210028FAD1C3E8401F0028FD
:101C0800F6D1BFF35F8F94F9041023680029E2DA54
:101C1800002184F80480C3E88F1F82F31088012014
:101C2800BDE8F0810020BDE8F08100BF10B5016873
:101C3800EFF3108E72B6D1E8CFCF0124BCF1000FBC
:101C4800F9D1C1E84C4FBCF1000FF4D1BFF35F8F5D
:101C580090F904C00468BCF1000F10DB0021C4E84F
:101C68008F1F8EF310884FF0504494F9004064455C
:101C780001D1084610BDBDE81040FFF7A1BF4FF0E5
:101C88005042126800230271C4E88F3F8EF3108817
:101C9800012010BD0368EFF3108272B6D3E8CFCFEE
:101CA8000121BCF1000FF9D1C3E84C1FBCF1000FB2
:101CB800F4D1BFF35F8F4FF0FF0C0023016880F869
:101CC80004C0C1E88F3F82F3108840BF704700BF4F
:101CD8005FF800F0D90C00101000000000000000B0
:101CE80000000100000000000000000000000200E9
:101CF80000000000000000000000030000000000D9
:101D0800000000000000FF000000000001B5486866
:101D180001318E460047704609380149884701BDA0
:101D28003506001000000000000000000000000060
:101D38000000000000000000B0020020B9160010EA
:101D4800CD1700100D170010DD170010000000005F
:0C1D58000001000000000000000000007E
:101D6400D3DEFFFFFE010000FF010000D4E3FFFF0C
:041D7400793512AB00
:040000051000014D99
:00000001FF
